{
  "_format": "hh-sol-artifact-1",
  "contractName": "MusicianToken",
  "sourceName": "contracts/MusicianToken.sol",
  "abi": [
    {
      "inputs": [],
      "stateMutability": "nonpayable",
      "type": "constructor"
    },
    {
      "inputs": [
        {
          "internalType": "address",
          "name": "spender",
          "type": "address"
        },
        {
          "internalType": "uint256",
          "name": "allowance",
          "type": "uint256"
        },
        {
          "internalType": "uint256",
          "name": "needed",
          "type": "uint256"
        }
      ],
      "name": "ERC20InsufficientAllowance",
      "type": "error"
    },
    {
      "inputs": [
        {
          "internalType": "address",
          "name": "sender",
          "type": "address"
        },
        {
          "internalType": "uint256",
          "name": "balance",
          "type": "uint256"
        },
        {
          "internalType": "uint256",
          "name": "needed",
          "type": "uint256"
        }
      ],
      "name": "ERC20InsufficientBalance",
      "type": "error"
    },
    {
      "inputs": [
        {
          "internalType": "address",
          "name": "approver",
          "type": "address"
        }
      ],
      "name": "ERC20InvalidApprover",
      "type": "error"
    },
    {
      "inputs": [
        {
          "internalType": "address",
          "name": "receiver",
          "type": "address"
        }
      ],
      "name": "ERC20InvalidReceiver",
      "type": "error"
    },
    {
      "inputs": [
        {
          "internalType": "address",
          "name": "sender",
          "type": "address"
        }
      ],
      "name": "ERC20InvalidSender",
      "type": "error"
    },
    {
      "inputs": [
        {
          "internalType": "address",
          "name": "spender",
          "type": "address"
        }
      ],
      "name": "ERC20InvalidSpender",
      "type": "error"
    },
    {
      "anonymous": false,
      "inputs": [
        {
          "indexed": true,
          "internalType": "address",
          "name": "owner",
          "type": "address"
        },
        {
          "indexed": true,
          "internalType": "address",
          "name": "spender",
          "type": "address"
        },
        {
          "indexed": false,
          "internalType": "uint256",
          "name": "value",
          "type": "uint256"
        }
      ],
      "name": "Approval",
      "type": "event"
    },
    {
      "anonymous": false,
      "inputs": [
        {
          "indexed": true,
          "internalType": "address",
          "name": "oldAddress",
          "type": "address"
        },
        {
          "indexed": true,
          "internalType": "address",
          "name": "newAddress",
          "type": "address"
        }
      ],
      "name": "MusicianAddressUpdated",
      "type": "event"
    },
    {
      "anonymous": false,
      "inputs": [
        {
          "indexed": true,
          "internalType": "address",
          "name": "musicianAddress",
          "type": "address"
        },
        {
          "indexed": false,
          "internalType": "string",
          "name": "name",
          "type": "string"
        },
        {
          "indexed": false,
          "internalType": "string",
          "name": "symbol",
          "type": "string"
        },
        {
          "indexed": false,
          "internalType": "uint256",
          "name": "musicianAllocation",
          "type": "uint256"
        }
      ],
      "name": "TokenInitialized",
      "type": "event"
    },
    {
      "anonymous": false,
      "inputs": [
        {
          "indexed": true,
          "internalType": "address",
          "name": "buyer",
          "type": "address"
        },
        {
          "indexed": false,
          "internalType": "uint256",
          "name": "amount",
          "type": "uint256"
        },
        {
          "indexed": false,
          "internalType": "uint256",
          "name": "totalCost",
          "type": "uint256"
        },
        {
          "indexed": false,
          "internalType": "uint256",
          "name": "timestamp",
          "type": "uint256"
        }
      ],
      "name": "TokenPurchased",
      "type": "event"
    },
    {
      "anonymous": false,
      "inputs": [
        {
          "indexed": true,
          "internalType": "address",
          "name": "from",
          "type": "address"
        },
        {
          "indexed": true,
          "internalType": "address",
          "name": "to",
          "type": "address"
        },
        {
          "indexed": false,
          "internalType": "uint256",
          "name": "value",
          "type": "uint256"
        }
      ],
      "name": "Transfer",
      "type": "event"
    },
    {
      "inputs": [
        {
          "internalType": "address",
          "name": "owner",
          "type": "address"
        },
        {
          "internalType": "address",
          "name": "spender",
          "type": "address"
        }
      ],
      "name": "allowance",
      "outputs": [
        {
          "internalType": "uint256",
          "name": "",
          "type": "uint256"
        }
      ],
      "stateMutability": "view",
      "type": "function"
    },
    {
      "inputs": [
        {
          "internalType": "address",
          "name": "spender",
          "type": "address"
        },
        {
          "internalType": "uint256",
          "name": "value",
          "type": "uint256"
        }
      ],
      "name": "approve",
      "outputs": [
        {
          "internalType": "bool",
          "name": "",
          "type": "bool"
        }
      ],
      "stateMutability": "nonpayable",
      "type": "function"
    },
    {
      "inputs": [
        {
          "internalType": "address",
          "name": "account",
          "type": "address"
        }
      ],
      "name": "balanceOf",
      "outputs": [
        {
          "internalType": "uint256",
          "name": "",
          "type": "uint256"
        }
      ],
      "stateMutability": "view",
      "type": "function"
    },
    {
      "inputs": [
        {
          "internalType": "uint256",
          "name": "amount",
          "type": "uint256"
        }
      ],
      "name": "buyToken",
      "outputs": [
        {
          "internalType": "bool",
          "name": "",
          "type": "bool"
        }
      ],
      "stateMutability": "payable",
      "type": "function"
    },
    {
      "inputs": [],
      "name": "decimals",
      "outputs": [
        {
          "internalType": "uint8",
          "name": "",
          "type": "uint8"
        }
      ],
      "stateMutability": "pure",
      "type": "function"
    },
    {
      "inputs": [],
      "name": "getMusicianAddress",
      "outputs": [
        {
          "internalType": "address",
          "name": "",
          "type": "address"
        }
      ],
      "stateMutability": "view",
      "type": "function"
    },
    {
      "inputs": [],
      "name": "getPrice",
      "outputs": [
        {
          "internalType": "uint256",
          "name": "",
          "type": "uint256"
        }
      ],
      "stateMutability": "pure",
      "type": "function"
    },
    {
      "inputs": [],
      "name": "getTokenMetadata",
      "outputs": [
        {
          "internalType": "string",
          "name": "",
          "type": "string"
        },
        {
          "internalType": "string",
          "name": "",
          "type": "string"
        },
        {
          "internalType": "uint8",
          "name": "",
          "type": "uint8"
        },
        {
          "internalType": "uint256",
          "name": "",
          "type": "uint256"
        }
      ],
      "stateMutability": "view",
      "type": "function"
    },
    {
      "inputs": [
        {
          "internalType": "string",
          "name": "name_",
          "type": "string"
        },
        {
          "internalType": "string",
          "name": "symbol_",
          "type": "string"
        },
        {
          "internalType": "address",
          "name": "musicianAddress_",
          "type": "address"
        }
      ],
      "name": "initialize",
      "outputs": [],
      "stateMutability": "nonpayable",
      "type": "function"
    },
    {
      "inputs": [],
      "name": "isInitialized",
      "outputs": [
        {
          "internalType": "bool",
          "name": "",
          "type": "bool"
        }
      ],
      "stateMutability": "view",
      "type": "function"
    },
    {
      "inputs": [],
      "name": "musicianAddress",
      "outputs": [
        {
          "internalType": "address",
          "name": "",
          "type": "address"
        }
      ],
      "stateMutability": "view",
      "type": "function"
    },
    {
      "inputs": [],
      "name": "name",
      "outputs": [
        {
          "internalType": "string",
          "name": "",
          "type": "string"
        }
      ],
      "stateMutability": "view",
      "type": "function"
    },
    {
      "inputs": [],
      "name": "symbol",
      "outputs": [
        {
          "internalType": "string",
          "name": "",
          "type": "string"
        }
      ],
      "stateMutability": "view",
      "type": "function"
    },
    {
      "inputs": [],
      "name": "totalSupply",
      "outputs": [
        {
          "internalType": "uint256",
          "name": "",
          "type": "uint256"
        }
      ],
      "stateMutability": "view",
      "type": "function"
    },
    {
      "inputs": [
        {
          "internalType": "address",
          "name": "to",
          "type": "address"
        },
        {
          "internalType": "uint256",
          "name": "value",
          "type": "uint256"
        }
      ],
      "name": "transfer",
      "outputs": [
        {
          "internalType": "bool",
          "name": "",
          "type": "bool"
        }
      ],
      "stateMutability": "nonpayable",
      "type": "function"
    },
    {
      "inputs": [
        {
          "internalType": "address",
          "name": "from",
          "type": "address"
        },
        {
          "internalType": "address",
          "name": "to",
          "type": "address"
        },
        {
          "internalType": "uint256",
          "name": "value",
          "type": "uint256"
        }
      ],
      "name": "transferFrom",
      "outputs": [
        {
          "internalType": "bool",
          "name": "",
          "type": "bool"
        }
      ],
      "stateMutability": "nonpayable",
      "type": "function"
    },
    {
      "stateMutability": "payable",
      "type": "receive"
    }
  ],
  "bytecode": "0x60806040523480156200001157600080fd5b506040805160208082018352600080835283519182019093529182529060036200003c8382620000f9565b5060046200004b8282620000f9565b505050620001c5565b634e487b7160e01b600052604160045260246000fd5b600181811c908216806200007f57607f821691505b602082108103620000a057634e487b7160e01b600052602260045260246000fd5b50919050565b601f821115620000f457600081815260208120601f850160051c81016020861015620000cf5750805b601f850160051c820191505b81811015620000f057828155600101620000db565b5050505b505050565b81516001600160401b0381111562000115576200011562000054565b6200012d816200012684546200006a565b84620000a6565b602080601f8311600181146200016557600084156200014c5750858301515b600019600386901b1c1916600185901b178555620000f0565b600085815260208120601f198616915b82811015620001965788860151825594840194600190910190840162000175565b5085821015620001b55787850151600019600388901b60f8161c191681555b5050505050600190811b01905550565b610e9380620001d56000396000f3fe6080604052600436106100f75760003560e01c8063392e53cd1161008a57806395d89b411161005957806395d89b41146102be57806398d5fdca146102d3578063a9059cbb146102ed578063dd62ed3e1461030d57600080fd5b8063392e53cd1461021357806367b407f71461023257806370a082311461026a578063856229dd146102a057600080fd5b806318160ddd116100c657806318160ddd146101a557806323b872dd146101c45780632d296bf1146101e4578063313ce567146101f757600080fd5b806306fdde0314610103578063077f224a1461012e578063095ea7b314610150578063124d5ac01461018057600080fd5b366100fe57005b600080fd5b34801561010f57600080fd5b50610118610353565b6040516101259190610b44565b60405180910390f35b34801561013a57600080fd5b5061014e610149366004610c1d565b6103e5565b005b34801561015c57600080fd5b5061017061016b366004610c91565b61051d565b6040519015158152602001610125565b34801561018c57600080fd5b50610195610537565b6040516101259493929190610cbb565b3480156101b157600080fd5b506002545b604051908152602001610125565b3480156101d057600080fd5b506101706101df366004610cf7565b610560565b6101706101f2366004610d33565b610584565b34801561020357600080fd5b5060405160128152602001610125565b34801561021f57600080fd5b50600554600160a01b900460ff16610170565b34801561023e57600080fd5b50600554610252906001600160a01b031681565b6040516001600160a01b039091168152602001610125565b34801561027657600080fd5b506101b6610285366004610d4c565b6001600160a01b031660009081526020819052604090205490565b3480156102ac57600080fd5b506005546001600160a01b0316610252565b3480156102ca57600080fd5b506101186107bc565b3480156102df57600080fd5b50662386f26fc100006101b6565b3480156102f957600080fd5b50610170610308366004610c91565b6107cb565b34801561031957600080fd5b506101b6610328366004610d67565b6001600160a01b03918216600090815260016020908152604080832093909416825291909152205490565b60606003805461036290610d9a565b80601f016020809104026020016040519081016040528092919081815260200182805461038e90610d9a565b80156103db5780601f106103b0576101008083540402835291602001916103db565b820191906000526020600020905b8154815290600101906020018083116103be57829003601f168201915b5050505050905090565b600554600160a01b900460ff16156104445760405162461bcd60e51b815260206004820152601960248201527f546f6b656e20616c726561647920696e697469616c697a65640000000000000060448201526064015b60405180910390fd5b6001600160a01b03811661049a5760405162461bcd60e51b815260206004820152601860248201527f496e76616c6964206d7573696369616e20616464726573730000000000000000604482015260640161043b565b600580546001600160a01b0383166001600160a81b031990911617600160a01b17905569021e19e0c9bab24000006104d282826107d9565b816001600160a01b03167fe5f3d4d973adb1929e7cc0de037806c434df11972ab5d75ad1527937bed9589885858460405161050f93929190610dd4565b60405180910390a250505050565b60003361052b818585610813565b60019150505b92915050565b606080600080610545610353565b61054d6107bc565b6012600254935093509350935090919293565b60003361056e858285610825565b6105798585856108a4565b506001949350505050565b60008082116105d55760405162461bcd60e51b815260206004820152601d60248201527f416d6f756e74206d7573742062652067726561746572207468616e2030000000604482015260640161043b565b662386f26fc1000060006105e98483610e20565b9050803410156106325760405162461bcd60e51b8152602060048201526014602482015273125b9cdd59999a58da595b9d081c185e5b595b9d60621b604482015260640161043b565b6005546001600160a01b031660009081526020819052604090205461065f85670de0b6b3a7640000610e20565b8110156106ae5760405162461bcd60e51b815260206004820152601960248201527f496e73756666696369656e7420746f6b656e20737570706c7900000000000000604482015260640161043b565b6005546106d6906001600160a01b0316336106d188670de0b6b3a7640000610e20565b6108a4565b8134111561076f576000336106eb8434610e37565b604051600081818185875af1925050503d8060008114610727576040519150601f19603f3d011682016040523d82523d6000602084013e61072c565b606091505b505090508061076d5760405162461bcd60e51b815260206004820152600d60248201526c1499599d5b990819985a5b1959609a1b604482015260640161043b565b505b60408051868152602081018490524281830152905133917f2b0c4dfbf2e34a2292e9110d6ea90d7c78f54b3aebe3974d2db7197308f21ff8919081900360600190a2506001949350505050565b60606004805461036290610d9a565b60003361052b8185856108a4565b6001600160a01b0382166108035760405163ec442f0560e01b81526000600482015260240161043b565b61080f600083836108ff565b5050565b6108208383836001610a29565b505050565b6001600160a01b0383811660009081526001602090815260408083209386168352929052205460001981101561089e578181101561088f57604051637dc7a0d960e11b81526001600160a01b0384166004820152602481018290526044810183905260640161043b565b61089e84848484036000610a29565b50505050565b6001600160a01b0383166108ce57604051634b637e8f60e11b81526000600482015260240161043b565b6001600160a01b0382166108f85760405163ec442f0560e01b81526000600482015260240161043b565b6108208383835b6001600160a01b03831661092a57806002600082825461091f9190610e4a565b9091555061099c9050565b6001600160a01b0383166000908152602081905260409020548181101561097d5760405163391434e360e21b81526001600160a01b0385166004820152602481018290526044810183905260640161043b565b6001600160a01b03841660009081526020819052604090209082900390555b6001600160a01b0382166109b8576002805482900390556109d7565b6001600160a01b03821660009081526020819052604090208054820190555b816001600160a01b0316836001600160a01b03167fddf252ad1be2c89b69c2b068fc378daa952ba7f163c4a11628f55a4df523b3ef83604051610a1c91815260200190565b60405180910390a3505050565b6001600160a01b038416610a535760405163e602df0560e01b81526000600482015260240161043b565b6001600160a01b038316610a7d57604051634a1406b160e11b81526000600482015260240161043b565b6001600160a01b038085166000908152600160209081526040808320938716835292905220829055801561089e57826001600160a01b0316846001600160a01b03167f8c5be1e5ebec7d5bd14f71427d1e84f3dd0314c0f7b2291e5b200ac8c7c3b92584604051610af091815260200190565b60405180910390a350505050565b6000815180845260005b81811015610b2457602081850181015186830182015201610b08565b506000602082860101526020601f19601f83011685010191505092915050565b602081526000610b576020830184610afe565b9392505050565b634e487b7160e01b600052604160045260246000fd5b600082601f830112610b8557600080fd5b813567ffffffffffffffff80821115610ba057610ba0610b5e565b604051601f8301601f19908116603f01168101908282118183101715610bc857610bc8610b5e565b81604052838152866020858801011115610be157600080fd5b836020870160208301376000602085830101528094505050505092915050565b80356001600160a01b0381168114610c1857600080fd5b919050565b600080600060608486031215610c3257600080fd5b833567ffffffffffffffff80821115610c4a57600080fd5b610c5687838801610b74565b94506020860135915080821115610c6c57600080fd5b50610c7986828701610b74565b925050610c8860408501610c01565b90509250925092565b60008060408385031215610ca457600080fd5b610cad83610c01565b946020939093013593505050565b608081526000610cce6080830187610afe565b8281036020840152610ce08187610afe565b60ff95909516604084015250506060015292915050565b600080600060608486031215610d0c57600080fd5b610d1584610c01565b9250610d2360208501610c01565b9150604084013590509250925092565b600060208284031215610d4557600080fd5b5035919050565b600060208284031215610d5e57600080fd5b610b5782610c01565b60008060408385031215610d7a57600080fd5b610d8383610c01565b9150610d9160208401610c01565b90509250929050565b600181811c90821680610dae57607f821691505b602082108103610dce57634e487b7160e01b600052602260045260246000fd5b50919050565b606081526000610de76060830186610afe565b8281036020840152610df98186610afe565b915050826040830152949350505050565b634e487b7160e01b600052601160045260246000fd5b808202811582820484141761053157610531610e0a565b8181038181111561053157610531610e0a565b8082018082111561053157610531610e0a56fea2646970667358221220fd21b6342157da1b78717e9bfa4479d582be62687b920ed8f6b05b2096f8307264736f6c63430008140033",
  "linkReferences": {},
  "deployedLinkReferences": {}
}