{
  "_format": "hh-sol-artifact-1",
  "contractName": "MusicianTokenFactory",
  "sourceName": "contracts/MusicianTokenFactory.sol",
  "abi": [
    {
      "inputs": [
        {
          "internalType": "address",
          "name": "_implementation",
          "type": "address"
        }
      ],
      "stateMutability": "nonpayable",
      "type": "constructor"
    },
    {
      "inputs": [],
      "name": "FailedDeployment",
      "type": "error"
    },
    {
      "inputs": [
        {
          "internalType": "uint256",
          "name": "balance",
          "type": "uint256"
        },
        {
          "internalType": "uint256",
          "name": "needed",
          "type": "uint256"
        }
      ],
      "name": "InsufficientBalance",
      "type": "error"
    },
    {
      "inputs": [
        {
          "internalType": "address",
          "name": "owner",
          "type": "address"
        }
      ],
      "name": "OwnableInvalidOwner",
      "type": "error"
    },
    {
      "inputs": [
        {
          "internalType": "address",
          "name": "account",
          "type": "address"
        }
      ],
      "name": "OwnableUnauthorizedAccount",
      "type": "error"
    },
    {
      "anonymous": false,
      "inputs": [
        {
          "indexed": true,
          "internalType": "address",
          "name": "newImplementation",
          "type": "address"
        }
      ],
      "name": "ImplementationUpdated",
      "type": "event"
    },
    {
      "anonymous": false,
      "inputs": [
        {
          "indexed": true,
          "internalType": "address",
          "name": "previousOwner",
          "type": "address"
        },
        {
          "indexed": true,
          "internalType": "address",
          "name": "newOwner",
          "type": "address"
        }
      ],
      "name": "OwnershipTransferred",
      "type": "event"
    },
    {
      "anonymous": false,
      "inputs": [
        {
          "indexed": true,
          "internalType": "address",
          "name": "musicianAddress",
          "type": "address"
        },
        {
          "indexed": true,
          "internalType": "address",
          "name": "tokenAddress",
          "type": "address"
        },
        {
          "indexed": false,
          "internalType": "string",
          "name": "name",
          "type": "string"
        },
        {
          "indexed": false,
          "internalType": "string",
          "name": "symbol",
          "type": "string"
        },
        {
          "indexed": false,
          "internalType": "uint256",
          "name": "timestamp",
          "type": "uint256"
        }
      ],
      "name": "TokenDeployed",
      "type": "event"
    },
    {
      "inputs": [
        {
          "internalType": "string",
          "name": "name",
          "type": "string"
        },
        {
          "internalType": "string",
          "name": "symbol",
          "type": "string"
        },
        {
          "internalType": "address",
          "name": "musicianAddress",
          "type": "address"
        }
      ],
      "name": "deployToken",
      "outputs": [
        {
          "internalType": "address",
          "name": "",
          "type": "address"
        }
      ],
      "stateMutability": "nonpayable",
      "type": "function"
    },
    {
      "inputs": [
        {
          "internalType": "uint256",
          "name": "",
          "type": "uint256"
        }
      ],
      "name": "deployedTokens",
      "outputs": [
        {
          "internalType": "address",
          "name": "",
          "type": "address"
        }
      ],
      "stateMutability": "view",
      "type": "function"
    },
    {
      "inputs": [],
      "name": "getDeployedTokenCount",
      "outputs": [
        {
          "internalType": "uint256",
          "name": "",
          "type": "uint256"
        }
      ],
      "stateMutability": "view",
      "type": "function"
    },
    {
      "inputs": [
        {
          "internalType": "uint256",
          "name": "offset",
          "type": "uint256"
        },
        {
          "internalType": "uint256",
          "name": "limit",
          "type": "uint256"
        }
      ],
      "name": "getDeployedTokens",
      "outputs": [
        {
          "internalType": "address[]",
          "name": "",
          "type": "address[]"
        }
      ],
      "stateMutability": "view",
      "type": "function"
    },
    {
      "inputs": [],
      "name": "getImplementation",
      "outputs": [
        {
          "internalType": "address",
          "name": "",
          "type": "address"
        }
      ],
      "stateMutability": "view",
      "type": "function"
    },
    {
      "inputs": [
        {
          "internalType": "address",
          "name": "musicianAddress",
          "type": "address"
        },
        {
          "internalType": "string",
          "name": "tokenName",
          "type": "string"
        }
      ],
      "name": "getMusicianToken",
      "outputs": [
        {
          "internalType": "address",
          "name": "",
          "type": "address"
        }
      ],
      "stateMutability": "view",
      "type": "function"
    },
    {
      "inputs": [
        {
          "internalType": "address",
          "name": "musicianAddress",
          "type": "address"
        }
      ],
      "name": "getMusicianTokenCount",
      "outputs": [
        {
          "internalType": "uint256",
          "name": "",
          "type": "uint256"
        }
      ],
      "stateMutability": "view",
      "type": "function"
    },
    {
      "inputs": [
        {
          "internalType": "address",
          "name": "musicianAddress",
          "type": "address"
        }
      ],
      "name": "getMusicianTokens",
      "outputs": [
        {
          "internalType": "address[]",
          "name": "",
          "type": "address[]"
        }
      ],
      "stateMutability": "view",
      "type": "function"
    },
    {
      "inputs": [],
      "name": "implementation",
      "outputs": [
        {
          "internalType": "address",
          "name": "",
          "type": "address"
        }
      ],
      "stateMutability": "view",
      "type": "function"
    },
    {
      "inputs": [
        {
          "internalType": "address",
          "name": "",
          "type": "address"
        }
      ],
      "name": "isFactoryToken",
      "outputs": [
        {
          "internalType": "bool",
          "name": "",
          "type": "bool"
        }
      ],
      "stateMutability": "view",
      "type": "function"
    },
    {
      "inputs": [
        {
          "internalType": "address",
          "name": "tokenAddress",
          "type": "address"
        }
      ],
      "name": "isTokenDeployedByFactory",
      "outputs": [
        {
          "internalType": "bool",
          "name": "",
          "type": "bool"
        }
      ],
      "stateMutability": "view",
      "type": "function"
    },
    {
      "inputs": [
        {
          "internalType": "address",
          "name": "",
          "type": "address"
        },
        {
          "internalType": "uint256",
          "name": "",
          "type": "uint256"
        }
      ],
      "name": "musicianTokens",
      "outputs": [
        {
          "internalType": "address",
          "name": "",
          "type": "address"
        }
      ],
      "stateMutability": "view",
      "type": "function"
    },
    {
      "inputs": [],
      "name": "owner",
      "outputs": [
        {
          "internalType": "address",
          "name": "",
          "type": "address"
        }
      ],
      "stateMutability": "view",
      "type": "function"
    },
    {
      "inputs": [],
      "name": "renounceOwnership",
      "outputs": [],
      "stateMutability": "nonpayable",
      "type": "function"
    },
    {
      "inputs": [
        {
          "internalType": "address",
          "name": "_newImplementation",
          "type": "address"
        }
      ],
      "name": "setImplementation",
      "outputs": [],
      "stateMutability": "nonpayable",
      "type": "function"
    },
    {
      "inputs": [
        {
          "internalType": "bytes32",
          "name": "",
          "type": "bytes32"
        }
      ],
      "name": "tokensByNameAndArtist",
      "outputs": [
        {
          "internalType": "address",
          "name": "",
          "type": "address"
        }
      ],
      "stateMutability": "view",
      "type": "function"
    },
    {
      "inputs": [
        {
          "internalType": "address",
          "name": "newOwner",
          "type": "address"
        }
      ],
      "name": "transferOwnership",
      "outputs": [],
      "stateMutability": "nonpayable",
      "type": "function"
    }
  ],
  "bytecode": "0x608060405234801561001057600080fd5b50604051610f4b380380610f4b83398101604081905261002f91610153565b338061005657604051631e4fbdf760e01b8152600060048201526024015b60405180910390fd5b61005f81610103565b506001600160a01b0381166100b65760405162461bcd60e51b815260206004820152601e60248201527f496e76616c696420696d706c656d656e746174696f6e20616464726573730000604482015260640161004d565b600180546001600160a01b0319166001600160a01b0383169081179091556040517f310ba5f1d2ed074b51e2eccd052a47ae9ab7c6b800d1fca3db3999d6a592ca0390600090a250610183565b600080546001600160a01b038381166001600160a01b0319831681178455604051919092169283917f8be0079c531659141344cd1fd0a4f28419497f9722a3daafe3b4186f6b6457e09190a35050565b60006020828403121561016557600080fd5b81516001600160a01b038116811461017c57600080fd5b9392505050565b610db9806101926000396000f3fe608060405234801561001057600080fd5b506004361061010b5760003560e01c80638b18a41b116100a2578063aaf10f4211610071578063aaf10f4214610277578063d784d42614610288578063e16f7e441461029b578063ec81aadb146102ae578063f2fde38b146102c157600080fd5b80638b18a41b146101de5780638da5cb5b14610207578063905c494a14610218578063a4b7914e1461025457600080fd5b80636561290e116100de5780636561290e1461018657806365f7aaa9146101af578063715018a6146101c2578063804215f6146101cc57600080fd5b8063134ec9c7146101105780631de6687f1461014057806321519749146101605780635c60da1b14610173575b600080fd5b61012361011e3660046109e3565b6102d4565b6040516001600160a01b0390911681526020015b60405180910390f35b61015361014e366004610a0d565b61030c565b6040516101379190610a2f565b61012361016e366004610b1f565b61044c565b600154610123906001600160a01b031681565b610123610194366004610b93565b6002602052600090815260409020546001600160a01b031681565b6101236101bd366004610bac565b6106c1565b6101ca61070d565b005b6004545b604051908152602001610137565b6101d06101ec366004610bfa565b6001600160a01b031660009081526003602052604090205490565b6000546001600160a01b0316610123565b610244610226366004610bfa565b6001600160a01b031660009081526005602052604090205460ff1690565b6040519015158152602001610137565b610244610262366004610bfa565b60056020526000908152604090205460ff1681565b6001546001600160a01b0316610123565b6101ca610296366004610bfa565b610721565b6101536102a9366004610bfa565b6107c9565b6101236102bc366004610b93565b61083f565b6101ca6102cf366004610bfa565b610869565b600360205281600052604060002081815481106102f057600080fd5b6000918252602090912001546001600160a01b03169150829050565b600454606090831061035c5760405162461bcd60e51b81526020600482015260146024820152734f6666736574206f7574206f6620626f756e647360601b60448201526064015b60405180910390fd5b60006103688385610c32565b60045490915081111561037a57506004545b60006103868583610c45565b67ffffffffffffffff81111561039e5761039e610a7c565b6040519080825280602002602001820160405280156103c7578160200160208202803683370190505b509050845b8281101561044157600481815481106103e7576103e7610c58565b6000918252602090912001546001600160a01b0316826104078884610c45565b8151811061041757610417610c58565b6001600160a01b03909216602092830291909101909101528061043981610c6e565b9150506103cc565b509150505b92915050565b60006001600160a01b0382166104a45760405162461bcd60e51b815260206004820152601860248201527f496e76616c6964206d7573696369616e206164647265737300000000000000006044820152606401610353565b600082856040516020016104b9929190610cab565b60408051601f198184030181529181528151602092830120600081815260029093529120549091506001600160a01b03161561055d5760405162461bcd60e51b815260206004820152603760248201527f546f6b656e20776974682074686973206e616d6520616c72656164792064657060448201527f6c6f79656420666f722074686973206d7573696369616e0000000000000000006064820152608401610353565b600154600090610575906001600160a01b03166108a7565b6040516303bf912560e11b81529091506001600160a01b0382169063077f224a906105a890899089908990600401610d0f565b600060405180830381600087803b1580156105c257600080fd5b505af11580156105d6573d6000803e3d6000fd5b505050600083815260026020908152604080832080546001600160a01b038088166001600160a01b031992831681179093558a1680865260038552838620805460018181018355918852868820018054841685179055600480548083019091557f8a35acfbc15ff81a39ae7d344fd709f28e8600b4aa8c65c6b64bfe7fe36bd19b0180549093168417909255828652600590945293829020805460ff191690941790935551919250907fafab02be1fad1d0d43ad198ee814f1c60ef1d1143fea62cb87cc7a65b71af122906106b0908a908a904290610d4d565b60405180910390a395945050505050565b60008083836040516020016106d7929190610cab565b60408051808303601f190181529181528151602092830120600090815260029092529020546001600160a01b0316949350505050565b6107156108b4565b61071f60006108e1565b565b6107296108b4565b6001600160a01b03811661077f5760405162461bcd60e51b815260206004820152601e60248201527f496e76616c696420696d706c656d656e746174696f6e206164647265737300006044820152606401610353565b600180546001600160a01b0319166001600160a01b0383169081179091556040517f310ba5f1d2ed074b51e2eccd052a47ae9ab7c6b800d1fca3db3999d6a592ca0390600090a250565b6001600160a01b03811660009081526003602090815260409182902080548351818402810184019094528084526060939283018282801561083357602002820191906000526020600020905b81546001600160a01b03168152600190910190602001808311610815575b50505050509050919050565b6004818154811061084f57600080fd5b6000918252602090912001546001600160a01b0316905081565b6108716108b4565b6001600160a01b03811661089b57604051631e4fbdf760e01b815260006004820152602401610353565b6108a4816108e1565b50565b6000610446826000610931565b6000546001600160a01b0316331461071f5760405163118cdaa760e01b8152336004820152602401610353565b600080546001600160a01b038381166001600160a01b0319831681178455604051919092169283917f8be0079c531659141344cd1fd0a4f28419497f9722a3daafe3b4186f6b6457e09190a35050565b60008147101561095d5760405163cf47918160e01b815247600482015260248101839052604401610353565b763d602d80600a3d3981f3363d3d373d3d3d363d730000008360601b60e81c176000526e5af43d82803e903d91602b57fd5bf38360781b176020526037600983f090506001600160a01b0381166104465760405163b06ebf3d60e01b815260040160405180910390fd5b80356001600160a01b03811681146109de57600080fd5b919050565b600080604083850312156109f657600080fd5b6109ff836109c7565b946020939093013593505050565b60008060408385031215610a2057600080fd5b50508035926020909101359150565b6020808252825182820181905260009190848201906040850190845b81811015610a705783516001600160a01b031683529284019291840191600101610a4b565b50909695505050505050565b634e487b7160e01b600052604160045260246000fd5b600082601f830112610aa357600080fd5b813567ffffffffffffffff80821115610abe57610abe610a7c565b604051601f8301601f19908116603f01168101908282118183101715610ae657610ae6610a7c565b81604052838152866020858801011115610aff57600080fd5b836020870160208301376000602085830101528094505050505092915050565b600080600060608486031215610b3457600080fd5b833567ffffffffffffffff80821115610b4c57600080fd5b610b5887838801610a92565b94506020860135915080821115610b6e57600080fd5b50610b7b86828701610a92565b925050610b8a604085016109c7565b90509250925092565b600060208284031215610ba557600080fd5b5035919050565b60008060408385031215610bbf57600080fd5b610bc8836109c7565b9150602083013567ffffffffffffffff811115610be457600080fd5b610bf085828601610a92565b9150509250929050565b600060208284031215610c0c57600080fd5b610c15826109c7565b9392505050565b634e487b7160e01b600052601160045260246000fd5b8082018082111561044657610446610c1c565b8181038181111561044657610446610c1c565b634e487b7160e01b600052603260045260246000fd5b600060018201610c8057610c80610c1c565b5060010190565b60005b83811015610ca2578181015183820152602001610c8a565b50506000910152565b6bffffffffffffffffffffffff198360601b16815260008251610cd5816014850160208701610c87565b919091016014019392505050565b60008151808452610cfb816020860160208601610c87565b601f01601f19169290920160200192915050565b606081526000610d226060830186610ce3565b8281036020840152610d348186610ce3565b91505060018060a01b0383166040830152949350505050565b606081526000610d606060830186610ce3565b8281036020840152610d728186610ce3565b91505082604083015294935050505056fea26469706673582212209709bcb180fd966e04379acf234725c3bf9dc3e871be939c98241de657ea59fe64736f6c63430008140033",
  "linkReferences": {},
  "deployedLinkReferences": {}
}